{
  "_format": "hh-sol-artifact-1",
  "contractName": "Lottery",
  "sourceName": "contracts/Lottery.sol",
  "abi": [
    {
      "inputs": [],
      "stateMutability": "nonpayable",
      "type": "constructor"
    },
    {
      "inputs": [],
      "name": "buyTickets",
      "outputs": [],
      "stateMutability": "payable",
      "type": "function"
    },
    {
      "inputs": [
        {
          "internalType": "bytes",
          "name": "",
          "type": "bytes"
        }
      ],
      "name": "checkUpkeep",
      "outputs": [
        {
          "internalType": "bool",
          "name": "upkeepNeeded",
          "type": "bool"
        },
        {
          "internalType": "bytes",
          "name": "performData",
          "type": "bytes"
        }
      ],
      "stateMutability": "view",
      "type": "function"
    },
    {
      "inputs": [],
      "name": "house",
      "outputs": [
        {
          "internalType": "address",
          "name": "",
          "type": "address"
        }
      ],
      "stateMutability": "view",
      "type": "function"
    },
    {
      "inputs": [],
      "name": "lastDraw",
      "outputs": [
        {
          "internalType": "uint256",
          "name": "",
          "type": "uint256"
        }
      ],
      "stateMutability": "view",
      "type": "function"
    },
    {
      "inputs": [],
      "name": "minBuy",
      "outputs": [
        {
          "internalType": "uint256",
          "name": "",
          "type": "uint256"
        }
      ],
      "stateMutability": "view",
      "type": "function"
    },
    {
      "inputs": [],
      "name": "nextDrawTime",
      "outputs": [
        {
          "internalType": "uint256",
          "name": "",
          "type": "uint256"
        }
      ],
      "stateMutability": "view",
      "type": "function"
    },
    {
      "inputs": [],
      "name": "owner",
      "outputs": [
        {
          "internalType": "address",
          "name": "",
          "type": "address"
        }
      ],
      "stateMutability": "view",
      "type": "function"
    },
    {
      "inputs": [
        {
          "internalType": "bytes",
          "name": "",
          "type": "bytes"
        }
      ],
      "name": "performUpkeep",
      "outputs": [],
      "stateMutability": "nonpayable",
      "type": "function"
    },
    {
      "inputs": [
        {
          "internalType": "uint256",
          "name": "",
          "type": "uint256"
        }
      ],
      "name": "tickets",
      "outputs": [
        {
          "internalType": "address",
          "name": "player",
          "type": "address"
        }
      ],
      "stateMutability": "view",
      "type": "function"
    },
    {
      "inputs": [
        {
          "internalType": "address",
          "name": "",
          "type": "address"
        }
      ],
      "name": "ticketsCount",
      "outputs": [
        {
          "internalType": "uint256",
          "name": "",
          "type": "uint256"
        }
      ],
      "stateMutability": "view",
      "type": "function"
    },
    {
      "inputs": [],
      "name": "totalETH",
      "outputs": [
        {
          "internalType": "uint256",
          "name": "",
          "type": "uint256"
        }
      ],
      "stateMutability": "view",
      "type": "function"
    },
    {
      "inputs": [
        {
          "internalType": "uint256",
          "name": "amount",
          "type": "uint256"
        }
      ],
      "name": "withdraw",
      "outputs": [],
      "stateMutability": "nonpayable",
      "type": "function"
    }
  ],
  "bytecode": "0x60806040527373ec7c2fc4e4e26accf831db6792c25be68673e6600160006101000a81548173ffffffffffffffffffffffffffffffffffffffff021916908373ffffffffffffffffffffffffffffffffffffffff16021790555066038d7ea4c680006002553480156200007157600080fd5b50336000806101000a81548173ffffffffffffffffffffffffffffffffffffffff021916908373ffffffffffffffffffffffffffffffffffffffff16021790555062093a808042620000c4919062000144565b620000d091906200017c565b600381905550620001c7565b6000819050919050565b7f4e487b7100000000000000000000000000000000000000000000000000000000600052601260045260246000fd5b7f4e487b7100000000000000000000000000000000000000000000000000000000600052601160045260246000fd5b60006200015182620000dc565b91506200015e83620000dc565b925082620001715762000170620000e6565b5b828204905092915050565b60006200018982620000dc565b91506200019683620000dc565b9250828202620001a681620000dc565b91508282048414831517620001c057620001bf62000115565b5b5092915050565b61106a80620001d76000396000f3fe6080604052600436106100a75760003560e01c80636e04ff0d116100645780636e04ff0d146101ce5780637107d7a61461020c57806374f47a7a146102375780638da5cb5b14610262578063c81998261461028d578063ff9b3acf14610297576100a7565b806329885590146100ac5780632e1a7d4d146100e957806336bdee74146101125780634585e33b1461013d57806350b44712146101665780635dd577ec146101a3575b600080fd5b3480156100b857600080fd5b506100d360048036038101906100ce9190610b8c565b6102c2565b6040516100e09190610bd2565b60405180910390f35b3480156100f557600080fd5b50610110600480360381019061010b9190610c19565b6102da565b005b34801561011e57600080fd5b5061012761039c565b6040516101349190610bd2565b60405180910390f35b34801561014957600080fd5b50610164600480360381019061015f9190610cab565b6103a2565b005b34801561017257600080fd5b5061018d60048036038101906101889190610c19565b6107f9565b60405161019a9190610d07565b60405180910390f35b3480156101af57600080fd5b506101b8610843565b6040516101c59190610bd2565b60405180910390f35b3480156101da57600080fd5b506101f560048036038101906101f09190610cab565b610849565b604051610203929190610dcd565b60405180910390f35b34801561021857600080fd5b50610221610885565b60405161022e9190610bd2565b60405180910390f35b34801561024357600080fd5b5061024c61088b565b6040516102599190610bd2565b60405180910390f35b34801561026e57600080fd5b506102776108bb565b6040516102849190610d07565b60405180910390f35b6102956108df565b005b3480156102a357600080fd5b506102ac610a7d565b6040516102b99190610d07565b60405180910390f35b60056020528060005260406000206000915090505481565b60008054906101000a900473ffffffffffffffffffffffffffffffffffffffff1673ffffffffffffffffffffffffffffffffffffffff163373ffffffffffffffffffffffffffffffffffffffff161461033257600080fd5b60008054906101000a900473ffffffffffffffffffffffffffffffffffffffff1673ffffffffffffffffffffffffffffffffffffffff166108fc829081150290604051600060405180830381858888f19350505050158015610398573d6000803e3d6000fd5b5050565b60065481565b6103aa61088b565b4210156103b657600080fd5b600560048054905010156103c957600080fd5b6103d161088b565b600381905550600042446040516020016103ec929190610e1e565b6040516020818303038152906040528051906020012060001c905061040f610aa3565b60005b60058110156105005760006004805490508461042e9190610e79565b90506004818154811061044457610443610eaa565b5b9060005260206000200160000160009054906101000a900473ffffffffffffffffffffffffffffffffffffffff1683836005811061048557610484610eaa565b5b602002019073ffffffffffffffffffffffffffffffffffffffff16908173ffffffffffffffffffffffffffffffffffffffff16815250508381836040516020016104d193929190610ed9565b6040516020818303038152906040528051906020012060001c93505080806104f890610f45565b915050610412565b5060006064605f6006546105149190610f8d565b61051e9190610fcf565b90508160006005811061053457610533610eaa565b5b602002015173ffffffffffffffffffffffffffffffffffffffff166108fc60646032846105619190610f8d565b61056b9190610fcf565b9081150290604051600060405180830381858888f19350505050158015610596573d6000803e3d6000fd5b50816001600581106105ab576105aa610eaa565b5b602002015173ffffffffffffffffffffffffffffffffffffffff166108fc60646014846105d89190610f8d565b6105e29190610fcf565b9081150290604051600060405180830381858888f1935050505015801561060d573d6000803e3d6000fd5b508160026005811061062257610621610eaa565b5b602002015173ffffffffffffffffffffffffffffffffffffffff166108fc6064600f8461064f9190610f8d565b6106599190610fcf565b9081150290604051600060405180830381858888f19350505050158015610684573d6000803e3d6000fd5b508160036005811061069957610698610eaa565b5b602002015173ffffffffffffffffffffffffffffffffffffffff166108fc60646005846106c69190610f8d565b6106d09190610fcf565b9081150290604051600060405180830381858888f193505050501580156106fb573d6000803e3d6000fd5b50816004600581106107105761070f610eaa565b5b602002015173ffffffffffffffffffffffffffffffffffffffff166108fc606460058461073d9190610f8d565b6107479190610fcf565b9081150290604051600060405180830381858888f19350505050158015610772573d6000803e3d6000fd5b50600160009054906101000a900473ffffffffffffffffffffffffffffffffffffffff1673ffffffffffffffffffffffffffffffffffffffff166108fc479081150290604051600060405180830381858888f193505050501580156107db573d6000803e3d6000fd5b50600460006107ea9190610ac5565b60006006819055505050505050565b6004818154811061080957600080fd5b906000526020600020016000915090508060000160009054906101000a900473ffffffffffffffffffffffffffffffffffffffff16905081565b60035481565b6000606061085561088b565b421015801561086a5750600560048054905010155b91506040518060200160405280600081525090509250929050565b60025481565b600062093a80600162093a80426108a29190610fcf565b6108ac9190611000565b6108b69190610f8d565b905090565b60008054906101000a900473ffffffffffffffffffffffffffffffffffffffff1681565b6002543410156108ee57600080fd5b6000600254346108fe9190610fcf565b9050606481600560003373ffffffffffffffffffffffffffffffffffffffff1673ffffffffffffffffffffffffffffffffffffffff1681526020019081526020016000205461094d9190611000565b111561095857600080fd5b60005b81811015610a6057600460405180602001604052803373ffffffffffffffffffffffffffffffffffffffff168152509080600181540180825580915050600190039060005260206000200160009091909190915060008201518160000160006101000a81548173ffffffffffffffffffffffffffffffffffffffff021916908373ffffffffffffffffffffffffffffffffffffffff1602179055505050600560003373ffffffffffffffffffffffffffffffffffffffff1673ffffffffffffffffffffffffffffffffffffffff1681526020019081526020016000206000815480929190610a4890610f45565b91905055508080610a5890610f45565b91505061095b565b503460066000828254610a739190611000565b9250508190555050565b600160009054906101000a900473ffffffffffffffffffffffffffffffffffffffff1681565b6040518060a00160405280600590602082028036833780820191505090505090565b5080546000825590600052602060002090810190610ae39190610ae6565b50565b5b80821115610b2057600080820160006101000a81549073ffffffffffffffffffffffffffffffffffffffff021916905550600101610ae7565b5090565b600080fd5b600080fd5b600073ffffffffffffffffffffffffffffffffffffffff82169050919050565b6000610b5982610b2e565b9050919050565b610b6981610b4e565b8114610b7457600080fd5b50565b600081359050610b8681610b60565b92915050565b600060208284031215610ba257610ba1610b24565b5b6000610bb084828501610b77565b91505092915050565b6000819050919050565b610bcc81610bb9565b82525050565b6000602082019050610be76000830184610bc3565b92915050565b610bf681610bb9565b8114610c0157600080fd5b50565b600081359050610c1381610bed565b92915050565b600060208284031215610c2f57610c2e610b24565b5b6000610c3d84828501610c04565b91505092915050565b600080fd5b600080fd5b600080fd5b60008083601f840112610c6b57610c6a610c46565b5b8235905067ffffffffffffffff811115610c8857610c87610c4b565b5b602083019150836001820283011115610ca457610ca3610c50565b5b9250929050565b60008060208385031215610cc257610cc1610b24565b5b600083013567ffffffffffffffff811115610ce057610cdf610b29565b5b610cec85828601610c55565b92509250509250929050565b610d0181610b4e565b82525050565b6000602082019050610d1c6000830184610cf8565b92915050565b60008115159050919050565b610d3781610d22565b82525050565b600081519050919050565b600082825260208201905092915050565b60005b83811015610d77578082015181840152602081019050610d5c565b60008484015250505050565b6000601f19601f8301169050919050565b6000610d9f82610d3d565b610da98185610d48565b9350610db9818560208601610d59565b610dc281610d83565b840191505092915050565b6000604082019050610de26000830185610d2e565b8181036020830152610df48184610d94565b90509392505050565b6000819050919050565b610e18610e1382610bb9565b610dfd565b82525050565b6000610e2a8285610e07565b602082019150610e3a8284610e07565b6020820191508190509392505050565b7f4e487b7100000000000000000000000000000000000000000000000000000000600052601260045260246000fd5b6000610e8482610bb9565b9150610e8f83610bb9565b925082610e9f57610e9e610e4a565b5b828206905092915050565b7f4e487b7100000000000000000000000000000000000000000000000000000000600052603260045260246000fd5b6000610ee58286610e07565b602082019150610ef58285610e07565b602082019150610f058284610e07565b602082019150819050949350505050565b7f4e487b7100000000000000000000000000000000000000000000000000000000600052601160045260246000fd5b6000610f5082610bb9565b91507fffffffffffffffffffffffffffffffffffffffffffffffffffffffffffffffff8203610f8257610f81610f16565b5b600182019050919050565b6000610f9882610bb9565b9150610fa383610bb9565b9250828202610fb181610bb9565b91508282048414831517610fc857610fc7610f16565b5b5092915050565b6000610fda82610bb9565b9150610fe583610bb9565b925082610ff557610ff4610e4a565b5b828204905092915050565b600061100b82610bb9565b915061101683610bb9565b925082820190508082111561102e5761102d610f16565b5b9291505056fea26469706673582212203dff97d346d1ce5c049740bc9320239f56db04fe612017b898a8c824116fa1a964736f6c63430008130033",
  "linkReferences": {},
  "deployedLinkReferences": {}
}