{
  "_format": "hh-sol-artifact-1",
  "contractName": "Lottery",
  "sourceName": "contracts/Lottery.sol",
  "abi": [
    {
      "inputs": [],
      "stateMutability": "nonpayable",
      "type": "constructor"
    },
    {
      "inputs": [],
      "name": "buyTickets",
      "outputs": [],
      "stateMutability": "payable",
      "type": "function"
    },
    {
      "inputs": [],
      "name": "drawInterval",
      "outputs": [
        {
          "internalType": "uint256",
          "name": "",
          "type": "uint256"
        }
      ],
      "stateMutability": "view",
      "type": "function"
    },
    {
      "inputs": [],
      "name": "drawWinners",
      "outputs": [],
      "stateMutability": "nonpayable",
      "type": "function"
    },
    {
      "inputs": [],
      "name": "house",
      "outputs": [
        {
          "internalType": "address",
          "name": "",
          "type": "address"
        }
      ],
      "stateMutability": "view",
      "type": "function"
    },
    {
      "inputs": [],
      "name": "lastDraw",
      "outputs": [
        {
          "internalType": "uint256",
          "name": "",
          "type": "uint256"
        }
      ],
      "stateMutability": "view",
      "type": "function"
    },
    {
      "inputs": [],
      "name": "minBuy",
      "outputs": [
        {
          "internalType": "uint256",
          "name": "",
          "type": "uint256"
        }
      ],
      "stateMutability": "view",
      "type": "function"
    },
    {
      "inputs": [],
      "name": "nextDrawTime",
      "outputs": [
        {
          "internalType": "uint256",
          "name": "",
          "type": "uint256"
        }
      ],
      "stateMutability": "view",
      "type": "function"
    },
    {
      "inputs": [
        {
          "internalType": "uint256",
          "name": "",
          "type": "uint256"
        }
      ],
      "name": "tickets",
      "outputs": [
        {
          "internalType": "address",
          "name": "player",
          "type": "address"
        }
      ],
      "stateMutability": "view",
      "type": "function"
    },
    {
      "inputs": [
        {
          "internalType": "address",
          "name": "",
          "type": "address"
        }
      ],
      "name": "ticketsCount",
      "outputs": [
        {
          "internalType": "uint256",
          "name": "",
          "type": "uint256"
        }
      ],
      "stateMutability": "view",
      "type": "function"
    },
    {
      "inputs": [],
      "name": "totalETH",
      "outputs": [
        {
          "internalType": "uint256",
          "name": "",
          "type": "uint256"
        }
      ],
      "stateMutability": "view",
      "type": "function"
    }
  ],
  "bytecode": "0x60806040527373ec7c2fc4e4e26accf831db6792c25be68673e66000806101000a81548173ffffffffffffffffffffffffffffffffffffffff021916908373ffffffffffffffffffffffffffffffffffffffff16021790555062093a8060015566038d7ea4c6800060035534801561007657600080fd5b5042600281905550610fbb8061008d6000396000f3fe6080604052600436106100915760003560e01c806374f47a7a1161005957806374f47a7a14610191578063b8211d1e146101bc578063bc06c4cc146101d3578063c8199826146101fe578063ff9b3acf1461020857610091565b8063298855901461009657806336bdee74146100d357806350b44712146100fe5780635dd577ec1461013b5780637107d7a614610166575b600080fd5b3480156100a257600080fd5b506100bd60048036038101906100b89190610aa9565b610233565b6040516100ca9190610aef565b60405180910390f35b3480156100df57600080fd5b506100e861024b565b6040516100f59190610aef565b60405180910390f35b34801561010a57600080fd5b5061012560048036038101906101209190610b36565b610251565b6040516101329190610b72565b60405180910390f35b34801561014757600080fd5b5061015061029b565b60405161015d9190610aef565b60405180910390f35b34801561017257600080fd5b5061017b6102a1565b6040516101889190610aef565b60405180910390f35b34801561019d57600080fd5b506101a66102a7565b6040516101b39190610aef565b60405180910390f35b3480156101c857600080fd5b506101d16102d9565b005b3480156101df57600080fd5b506101e8610791565b6040516101f59190610aef565b60405180910390f35b610206610797565b005b34801561021457600080fd5b5061021d6109a1565b60405161022a9190610b72565b60405180910390f35b60056020528060005260406000206000915090505481565b60065481565b6004818154811061026157600080fd5b906000526020600020016000915090508060000160009054906101000a900473ffffffffffffffffffffffffffffffffffffffff16905081565b60025481565b60035481565b600062093a80600162093a806002546102c09190610beb565b6102ca9190610c1c565b6102d49190610c50565b905090565b6102e16102a7565b421015610323576040517f08c379a000000000000000000000000000000000000000000000000000000000815260040161031a90610cef565b60405180910390fd5b6005600480549050101561036c576040517f08c379a000000000000000000000000000000000000000000000000000000000815260040161036390610d5b565b60405180910390fd5b4260028190555060004244604051602001610388929190610d9c565b6040516020818303038152906040528051906020012060001c90506103ab6109c5565b60005b600581101561049c576000600480549050846103ca9190610dc8565b9050600481815481106103e0576103df610df9565b5b9060005260206000200160000160009054906101000a900473ffffffffffffffffffffffffffffffffffffffff1683836005811061042157610420610df9565b5b602002019073ffffffffffffffffffffffffffffffffffffffff16908173ffffffffffffffffffffffffffffffffffffffff168152505083818360405160200161046d93929190610e28565b6040516020818303038152906040528051906020012060001c935050808061049490610e65565b9150506103ae565b5060006064605f6006546104b09190610c50565b6104ba9190610beb565b9050816000600581106104d0576104cf610df9565b5b602002015173ffffffffffffffffffffffffffffffffffffffff166108fc60646032846104fd9190610c50565b6105079190610beb565b9081150290604051600060405180830381858888f19350505050158015610532573d6000803e3d6000fd5b508160016005811061054757610546610df9565b5b602002015173ffffffffffffffffffffffffffffffffffffffff166108fc60646014846105749190610c50565b61057e9190610beb565b9081150290604051600060405180830381858888f193505050501580156105a9573d6000803e3d6000fd5b50816002600581106105be576105bd610df9565b5b602002015173ffffffffffffffffffffffffffffffffffffffff166108fc6064600f846105eb9190610c50565b6105f59190610beb565b9081150290604051600060405180830381858888f19350505050158015610620573d6000803e3d6000fd5b508160036005811061063557610634610df9565b5b602002015173ffffffffffffffffffffffffffffffffffffffff166108fc60646005846106629190610c50565b61066c9190610beb565b9081150290604051600060405180830381858888f19350505050158015610697573d6000803e3d6000fd5b50816004600581106106ac576106ab610df9565b5b602002015173ffffffffffffffffffffffffffffffffffffffff166108fc60646005846106d99190610c50565b6106e39190610beb565b9081150290604051600060405180830381858888f1935050505015801561070e573d6000803e3d6000fd5b5060008054906101000a900473ffffffffffffffffffffffffffffffffffffffff1673ffffffffffffffffffffffffffffffffffffffff166108fc479081150290604051600060405180830381858888f19350505050158015610775573d6000803e3d6000fd5b506004600061078491906109e7565b6000600681905550505050565b60015481565b6003543410156107dc576040517f08c379a00000000000000000000000000000000000000000000000000000000081526004016107d390610ef9565b60405180910390fd5b6000600354346107ec9190610beb565b9050606481600560003373ffffffffffffffffffffffffffffffffffffffff1673ffffffffffffffffffffffffffffffffffffffff1681526020019081526020016000205461083b9190610c1c565b111561087c576040517f08c379a000000000000000000000000000000000000000000000000000000000815260040161087390610f65565b60405180910390fd5b60005b8181101561098457600460405180602001604052803373ffffffffffffffffffffffffffffffffffffffff168152509080600181540180825580915050600190039060005260206000200160009091909190915060008201518160000160006101000a81548173ffffffffffffffffffffffffffffffffffffffff021916908373ffffffffffffffffffffffffffffffffffffffff1602179055505050600560003373ffffffffffffffffffffffffffffffffffffffff1673ffffffffffffffffffffffffffffffffffffffff168152602001908152602001600020600081548092919061096c90610e65565b9190505550808061097c90610e65565b91505061087f565b5034600660008282546109979190610c1c565b9250508190555050565b60008054906101000a900473ffffffffffffffffffffffffffffffffffffffff1681565b6040518060a00160405280600590602082028036833780820191505090505090565b5080546000825590600052602060002090810190610a059190610a08565b50565b5b80821115610a4257600080820160006101000a81549073ffffffffffffffffffffffffffffffffffffffff021916905550600101610a09565b5090565b600080fd5b600073ffffffffffffffffffffffffffffffffffffffff82169050919050565b6000610a7682610a4b565b9050919050565b610a8681610a6b565b8114610a9157600080fd5b50565b600081359050610aa381610a7d565b92915050565b600060208284031215610abf57610abe610a46565b5b6000610acd84828501610a94565b91505092915050565b6000819050919050565b610ae981610ad6565b82525050565b6000602082019050610b046000830184610ae0565b92915050565b610b1381610ad6565b8114610b1e57600080fd5b50565b600081359050610b3081610b0a565b92915050565b600060208284031215610b4c57610b4b610a46565b5b6000610b5a84828501610b21565b91505092915050565b610b6c81610a6b565b82525050565b6000602082019050610b876000830184610b63565b92915050565b7f4e487b7100000000000000000000000000000000000000000000000000000000600052601260045260246000fd5b7f4e487b7100000000000000000000000000000000000000000000000000000000600052601160045260246000fd5b6000610bf682610ad6565b9150610c0183610ad6565b925082610c1157610c10610b8d565b5b828204905092915050565b6000610c2782610ad6565b9150610c3283610ad6565b9250828201905080821115610c4a57610c49610bbc565b5b92915050565b6000610c5b82610ad6565b9150610c6683610ad6565b9250828202610c7481610ad6565b91508282048414831517610c8b57610c8a610bbc565b5b5092915050565b600082825260208201905092915050565b7f546f6f20736f6f6e000000000000000000000000000000000000000000000000600082015250565b6000610cd9600883610c92565b9150610ce482610ca3565b602082019050919050565b60006020820190508181036000830152610d0881610ccc565b9050919050565b7f4e6f7420656e6f75676820706c61796572730000000000000000000000000000600082015250565b6000610d45601283610c92565b9150610d5082610d0f565b602082019050919050565b60006020820190508181036000830152610d7481610d38565b9050919050565b6000819050919050565b610d96610d9182610ad6565b610d7b565b82525050565b6000610da88285610d85565b602082019150610db88284610d85565b6020820191508190509392505050565b6000610dd382610ad6565b9150610dde83610ad6565b925082610dee57610ded610b8d565b5b828206905092915050565b7f4e487b7100000000000000000000000000000000000000000000000000000000600052603260045260246000fd5b6000610e348286610d85565b602082019150610e448285610d85565b602082019150610e548284610d85565b602082019150819050949350505050565b6000610e7082610ad6565b91507fffffffffffffffffffffffffffffffffffffffffffffffffffffffffffffffff8203610ea257610ea1610bbc565b5b600182019050919050565b7f4d696e20302e3030312045544800000000000000000000000000000000000000600082015250565b6000610ee3600d83610c92565b9150610eee82610ead565b602082019050919050565b60006020820190508181036000830152610f1281610ed6565b9050919050565b7f4d617820313030207469636b6574730000000000000000000000000000000000600082015250565b6000610f4f600f83610c92565b9150610f5a82610f19565b602082019050919050565b60006020820190508181036000830152610f7e81610f42565b905091905056fea2646970667358221220fe92cc720743baea70a721259755350cb0072e41a9391ac9bcdd9277bfe0ff4464736f6c63430008130033",
  "linkReferences": {},
  "deployedLinkReferences": {}
}